:0200000012C02C
:10000200FECFFDCFFCCFFBCFFACFF9CFF8CFF7CFA2
:10001200F6CFF5CFF4CFF3CFF2CFF1CFF0CFEFCFD2
:10002200EECFEDCFF894EE27ECBBE5BF8DE0A2E07A
:10003200ED938A95E9F780E8A0E6ED938A95E9F7D2
:10004200E0E0E3BBE4BBE5BBEFEDEDBFC0E800C021
:1000520000E010E0E0E8E6BDE0E0E6BDEABBEBBBB5
:10006200E7BBE8BBE1BBE2BBE0BFE3BFE2BFE6BF89
:10007200ECBFEFBDEEBDEDBDECBDE5BDE4BDEBBD3E
:10008200EABDE9BDE8BDE9BFEBBFE5BFEDB9EAB93D
:10009200E0E8E8B9E0E0E1B9EFEFE7BBE1BBD29A13
:1000A200DA9863D1C49AC59AC69AC79863D1969AC8
:1000B200C798C89B02C0C99B01C029C062D114F075
:1000C20003E610E064D120E030E02A30E0E03E07B1
:1000D20054F45FD1C89902C0C99B01C001C0E8CFE6
:1000E2002F5F3F4FF2CFC89B02C0C99B01C00EC019
:1000F200C89B02C0C99B01C009C043D114F003E6EA
:1001020010E045D1A4E6B0E099D1F2CF31C0C89950
:1001120002C0C99901C02CC001501040112312F431
:1001220000E010E034D120E030E02A30E0E03E0789
:1001320054F42FD1C89902C0C99B01C001C0B8CFE5
:100142002F5F3F4FF2CFC89902C0C99901C010C0BA
:10015200C89902C0C99901C00BC0015010401123B7
:1001620012F400E010E013D1A4E6B0E067D1F0CFC2
:10017200C89902C0C99B01C004C000240016010630
:1001820009F427C0C89902C0C99B01C022C020E05F
:1001920030E02431E0E03E0774F4FBD0FDD0E217FA
:1001A200F30709F4C79AC89902C0C99B01C080CF5E
:1001B2002F5F3F4FEECF01501040E9D0002E012AB1
:1001C20039F4C798DA9AA8EBBBE038D1DA9801C0C3
:1001D200D9CF6ECFFFCFF7D08D01E1D0309711F498
:1001E200C4D059C0DCD0E130A0E0FA0729F4DBD05A
:1001F200C398C498C59851C0D2D0E230A0E0FA07A3
:1002020031F4C098C19AC29AC39AC49845C0C7D063
:10021200E330A0E0FA0719F4CAD0C4983DC0BFD0B9
:10022200E430A0E0FA0729F4BED0C39AC49AC59874
:1002320034C0B5D0E530A0E0FA0729F4B8D0C49AAA
:10024200C59AC6982BC0ABD0E630A0E0FA0741F4BD
:10025200C09AC19AC29AC39AC49AC59AC6981EC035
:100262009ED0E730A0E0FA0721F49DD0C398C4984D
:1002720013C095D0E830A0E0FA0721F4C09AC19AE1
:10028200C29A08C08CD0E930A0E0FA0739F4C09ACB
:10029200C19AC298C39AC49AC59AC69A8DD0309709
:1002A20011F468D05EC088D0E130A0E0FA0731F4E2
:1002B200909891989298939A949852C07DD0E230F7
:1002C200A0E0FA0739F490987BD0939A949A959A81
:1002D200969848C071D0E330A0E0FA0711F49098E4
:1002E2003BC06AD0E430A0E0FA0731F4909A919AC8
:1002F2009298939A949834C05FD0E530A0E0FA07C0
:1003020021F4909A5DD093982AC056D0E630A0E0AE
:10031200FA0731F4909A54D09398949A959A21C0FE
:100322004BD0E730A0E0FA0731F490989198929A76
:10033200939A949815C040D0E830A0E0FA0731F4BF
:10034200909A3ED0939A949A959A0BC035D0E93000
:10035200A0E0FA0739F4909A919A929A939A949A11
:100362009598969A099119910895C09AC19AC29A3C
:10037200C3980895909A9198929A939A949A959A7A
:1003820008950F5F1F4F0436E0E01E070895D8015D
:1003920022CFA2E3B0E052C0EAE0F0E00895D80133
:1003A200FBDF2BD00895C09AC198C2980895C09AD5
:1003B200C19AC298C39A0895D801EEDF23D0089556
:1003C200919A929A08951A930A930895F195E19554
:1003D200F04008950024112490E1AA0FBB1F001CD5
:1003E200111C0E1A1F0A18F40E0E1F1E01C0A16066
:1003F2009A9599F7FD01D001089512D0EBDF0EF422
:10040200E5DF0895E894B7FF04C0B195A195B04027
:100412006894F7FDDBDFDEDFFD010EF4D7DF089520
:10042200E894F7FF02C0D2DF6894B7FF06C0B19527
:10043200A195B04000F8039400FA0895109639F09F
:10044200A89580ED97E00197F1F71197C9F7089504
:00000001FF
